:0400000007EF00F016
:100008005082A7ED02F0FAEF05F041C045F0466ACC
:10001800476A4034453601E3468045504A6E44C03D
:1000280045F0466A476A4334453601E34680455001
:10003800496E4A50D8B40BD049504A5CD8B00ED05B
:100048004A5000084924456E180E456407D042C03E
:100058003FF043C040F044C041F012004950D8B4CA
:100068000BD04A50495CD8B00ED0495000084A24F9
:10007800456E180E456407D03FC03FF040C040F0C1
:1000880041C041F01200060E486E41BE488E44BE83
:10009800488C408EFF0E3F16FF0E4016000E41168C
:1000A800438EFF0E4216FF0E4316000E44164950AB
:1000B8004A5CD8B01BD0D8904236433644364906FD
:1000C8004A504918D8B40DD0480648C045F0070E24
:1000D8004516D8B406D0EFD7D890413240323F32D7
:1000E8004A2A49504A18D8B41FD0F6D74A50495C12
:1000F800D8B01AD0D8903F36403641364A064A50D2
:100108004918D8B40DD0480648C045F0070E451622
:10011800D8B406D0EFD7D890443243324232492A75
:1001280049504A18D8A4F7D748AE0CD0FF0E3F1A4A
:10013800FF0E401AFF0E411A010E3F26000E402204
:10014800000E412248AC0CD0FF0E421AFF0E431A93
:10015800FF0E441A010E4226000E4322000E4422CE
:10016800000E486E3F5042264050432241504422E0
:1001780044AE0ED0FF0E421AFF0E431AFF0E441A69
:10018800010E4226000E4322000E4422010E486E44
:1001980042C037F043C038F044C039F04AC03AF0A2
:1001A80048C03BF096EC04F037C03FF038C040F050
:1001B80039C041F0120035EC05F01A501B10D8A4D4
:1001C80003D02DEC06F0F9D71A041B10D8A421D0BF
:1001D80026EC06F018041910D8A403D095EC05F005
:1001E80089D0020E18181910D8A403D0DDEC05F038
:1001F80081D0030E18181910D8A403D06AEC05F0A2
:1002080079D0040E18181910D8A4D7D7C0EC05F067
:1002180071D0020E1A181B10D8A421D01FEC06F0BA
:1002280018041910D8A403D095EC05F063D0020E79
:1002380018181910D8A403D0DDEC05F05BD0030E14
:1002480018181910D8A403D06AEC05F053D0040E7E
:1002580018181910D8A4B1D7C0EC05F04BD0030E6C
:100268001A181B10D8A421D018EC06F0180419107D
:10027800D8A403D095EC05F03DD0020E181819103B
:10028800D8A403D0DDEC05F035D0030E18181910EA
:10029800D8A403D06AEC05F02DD0040E1818191054
:1002A800D8A48BD7C0EC05F025D0040E1A181B1063
:1002B800D8A483D711EC06F018041910D8A403D0D9
:1002C80095EC05F017D0020E18181910D8A403D011
:1002D800DDEC05F00FD0030E18181910D8A403D0C0
:1002E8006AEC05F007D0040E18181910D8A465D7C1
:1002F800C0EC05F0000E196E000E186E5ED7020EE7
:100308004E184F10D8A414D0C00E266EFF0E276EBC
:10031800430E286EC00E236E7F0E246E440E256E8B
:10032800000E4F6E010E4E6E000E4F6E030E4E6E97
:1003380026C03FF027C040F028C041F03F0E426E73
:10034800FA0E436E3E0E446EB3EC03F03FC013F05A
:1003580040C014F041C015F013C037F014C038F095
:1003680015C039F039EC03F03834383237323834C4
:10037800383237323750BE6E13C037F014C038F0F9
:1003880015C039F039EC03F0030E3716373AF00E82
:100398003716BD500F0B3710BD6E23C03FF024C079
:1003A80040F025C041F03F0E426EFA0E436E3E0EFD
:1003B800446EB3EC03F03FC010F040C011F041C0F0
:1003C80012F010C037F011C038F012C039F039EC13
:1003D80003F038343832373238343832373237501D
:1003E800BB6E10C037F011C038F012C039F039ECCC
:1003F80003F0030E3716373AF00E3716BD500F0BC1
:100408003710BA6E13C037F014C038F015C039F081
:1004180010C03AF011C03BF012C03CF0EDEC04F013
:100428001200030E4E184F10D8A414D0C00E266E1A
:100438007F0E276E440E286EC00E236EFF0E246EAC
:10044800430E256E000E4F6E010E4E6E000E4F6E5F
:10045800020E4E6E26C03FF027C040F028C041F083
:100468003F0E426EFA0E436E3E0E446EB3EC03F03E
:100478003FC013F040C014F041C015F013C037F06E
:1004880014C038F015C039F039EC03F0383438327C
:1004980037323834383237323750BE6E13C037F0FF
:1004A80014C038F015C039F039EC03F0030E3716D4
:1004B800373AF00E3716BD500F0B3710BD6E23C0FC
:1004C8003FF024C040F025C041F03F0E426EFA0EC6
:1004D800436E3E0E446EB3EC03F03FC010F040C0D4
:1004E80011F041C012F010C037F011C038F012C03E
:1004F80039F039EC03F0383438323732383438329E
:1005080037323750BB6E10C037F011C038F012C008
:1005180039F039EC03F0030E3716373AF00E371678
:10052800BD500F0B3710BA6E10C037F011C038F03D
:1005380012C039F013C03AF014C03BF015C03CF0BB
:10054800EDEC04F012000600FACF29F0FBCF2AF0F8
:10055800E9CF2BF0EACF2CF0E1CF2DF0E2CF2EF04F
:10056800D9CF2FF0DACF30F0F3CF31F0F4CF32F02B
:10057800F6CF33F0F7CF34F0F8CF35F0F5CF36F0CB
:100588009EAA55D0AECF16F0176A300E161817105F
:10059800D8A404D0000E1B6E000E23D0310E1618FE
:1005A8001710D8A404D0000E1B6E010E1AD0320EFC
:1005B80016181710D8A404D0000E1B6E020E11D006
:1005C800330E16181710D8A404D0000E1B6E030E95
:1005D80008D0340E16181710D8A405D0000E1B6EBC
:1005E800040E1A6E24D0350E16181710D8A404D08D
:1005F800000E196E010E1AD0360E16181710D8A450
:1006080004D0000E196E020E11D0370E16181710EE
:10061800D8A404D0000E196E030E08D0380E161890
:100628001710D8A404D0000E196E040E186E36C028
:10063800F5FF35C0F8FF34C0F7FF33C0F6FF32C00E
:10064800F4FF31C0F3FF30C0DAFF2FC0D9FF2EC04E
:10065800E2FF2DC0E1FF2CC0EAFF2BC0E9FF2AC052
:10066800FBFF29C0FAFF5092110039C03BF03C6AE9
:100678003D6A38343B3601E33C803B50456E45507B
:10068800D8A409D0000E376E000E386E000E396EF1
:10069800000E3A6E1200170E3B6E37C03CF038C0A1
:1006A8003DF039C03EF03B283F6E04D0D8903E3232
:1006B8003D323C323F2EFAD73C50406E388EFF0E0A
:1006C8003716FF0E3816000E39163750416E38505F
:1006D800426E3950436E446A8E0E455E45AE16D062
:1006E8004550800A8F0FD8B009D0000E376E000E23
:1006F800386E000E396E000E3A6E1200D8904432F1
:10070800433242324132453EF9D715D0170E45647F
:100718000FD0000E376E000E386E000E396E000EC8
:100728003A6E1200D8904136423643364436450672
:100738004550D8A4F7D74050D8B408D0441E431E1B
:10074800421E416C000E42224322442241C037F02F
:1007580042C038F043C039F044C03AF0120041C0FA
:1007680045F0466A476A4034453601E346804550BD
:10077800486E4850D8A407D0000E3F6E000E406E59
:10078800000E416E120044C045F0466A476A433481
:10079800453601E3468045504D6E4D50D8A407D0EC
:1007A800000E3F6E000E406E000E416E12004D505E
:1007B8007B0F482641C04DF044504D1A800E4D160F
:1007C800408E438EFF0E4216FF0E4316000E44164F
:1007D800000E496E000E4A6E000E4B6E070E4C6EF0
:1007E8003FA006D04250492643504A2244504B224B
:1007F800D890413240323F32D89042364336443660
:100808004C2EEED7090E4C6E3FA006D0425049261A
:1008180043504A2244504B22D890413240323F3212
:10082800D8904B324A3249324C2EEED749C037F075
:100838004AC038F04BC039F048C03AF04DC03BF0E0
:1008480096EC04F037C03FF038C040F039C041F0B2
:1008580012004E044F10D8A40ED0C00E266E7F0E84
:10086800276E440E286E000E4F6E020E4E6E000E5E
:100878004F6E030E4E6E26C03FF027C040F028C0D2
:1008880041F03F0E426EFA0E436E3E0E446EB3ECDC
:1008980003F03FC013F040C014F041C015F013C07E
:1008A80037F014C038F015C039F039EC03F038349B
:1008B800383237323834383237323750BE6E13C098
:1008C80037F014C038F015C039F039EC03F0030ED6
:1008D8003716373AF00E3716BD500F0B3710BD6E6E
:1008E80013C037F014C038F015C039F039EC03F0F4
:1008F8003834383237323834383237323750BB6EC2
:1009080013C037F014C038F015C039F039EC03F0D3
:10091800030E3716373AF00E3716BD500F0B371047
:10092800BA6E12003A50D8B405D037503810391082
:10093800D8A40CD0000E376E000E386E000E396E3B
:1009480012003A2AD890393238323732000E37142A
:100958003C6E000E38143D6EFE0E39143E6E3C504F
:100968003D103E10D8B40CD0ECD73A2A010E3726E9
:10097800000E3822000E3922D890393238323732F8
:10098800000E37143C6E000E38143D6EFF0E3914FD
:100998003E6E3C503D103E10D8B406D0E6D73A061D
:1009A800D89037363836393638BE03D0020E3A601A
:1009B800F6D73AA0389ED8903A323A5039123B507E
:1009C800D8A4398E37C037F038C038F039C039F07C
:1009D800120039AE16D037C03DF038C03EF039C0ED
:1009E8003FF03D1E3E1E3F1E3D2A000E3E223F2286
:1009F800000E3D24376E000E3E20386E800E3F20DC
:100A0800396E3CAE16D03AC03DF03BC03EF03CC01B
:100A18003FF03D1E3E1E3F1E3D2A000E3E223F2255
:100A2800000E3D243A6E000E3E203B6E800E3F20A5
:100A38003C6E000E371A000E381A800E391A000E56
:100A48003A1A000E3B1A800E3C1A3A50375C3B505B
:100A580038583C503958D8B002D0D8901200D880B5
:100A68001200720ED36E010EC26E0C0EC16E910E84
:100A7800C06EF00E936EF00E8A6E030E926E030E29
:100A8800896E000E966E000E8D6E7C0ECB6E030E78
:100A9800CA6E000E946E000E8B6E7D0EBE6E0C0E2E
:100AA800BD6E7D0EBB6E0C0EBA6E948E949C0C0EB1
:100AB800AF6E900EAB6E200EAC6EF28EF28C9D8AED
:100AC8009E9AC282000ECC6ECA84120023C03FF0E8
:100AD80024C040F025C041F09A0E426ECC0E436E01
:100AE800420E446E09EC00F03FC023F040C024F0F1
:100AF80041C025F0C00E376E7F0E386E440E396E39
:100B080023C03AF024C03BF025C03CF0EDEC04F0E3
:100B1800D8B01200C00E236E7F0E246E440E256ED0
:100B2800120026C03FF027C040F028C041F09A0EBE
:100B3800426ECC0E436E420E446E09EC00F03FC08C
:100B480026F040C027F041C028F0C00E376E7F0E57
:100B5800386E440E396E26C03AF027C03BF028C0E4
:100B68003CF0EDEC04F0D8B01200C00E266E7F0EFB
:100B7800276E440E286E120023C03FF024C040F0B8
:100B880025C041F09A0E426ECC0E436EC20E446EE2
:100B980009EC00F03FC023F040C024F041C025F02C
:100BA80025AE1200000E236E000E246E000E256E78
:100BB800120026C03FF027C040F028C041F09A0E2E
:100BC800426ECC0E436EC20E446E09EC00F03FC07C
:100BD80026F040C027F041C028F028AE1200000ED1
:100BE800266E000E276E000E286E1200640EF66E3A
:100BF8000C0EF76E000EF86E0900F5CF4EF00900E6
:100C0800F5CF4FF000EE01F0280EEE6AE806FDE1A0
:100C1800509050920001DFEF00F083EC01F08A80E1
:100C28008A928A848A96120015EC02F08A808A9247
:100C38008A848A9612002DEC04F08A908A828A941B
:100C48008A8612002DEC04F08A808A928A848A9619
:0E0C580012008A908A928A948A9612000100F5
:020000040020DA
:08000000FFFFFFFFFFFFFFFF00
:020000040030CA
:0E000000000B1F1EFF8381FF0FC00FE00F409B
:00000001FF
