:040000005DEF00F0C0
:06000800408202ED04F04D
:100018004080D8CF0FF0E8CF10F0E0CF11F0FACF42
:1000280012F0FBCF13F0E9CF14F0EACF15F0E1CFCF
:1000380016F0E2CF17F0D9CF18F0DACF19F0F3CFD6
:100048001AF0F4CF1BF0F6CF1CF0F7CF1DF0F8CF65
:100058001EF0F5CF1FF0F0A003D015EC0CF0F090D7
:10006800F0A203D015EC0CF0F0921FC0F5FF1EC0F3
:10007800F8FF1DC0F7FF1CC0F6FF1BC0F4FF1AC035
:10008800F3FF19C0DAFF18C0D9FF17C0E2FF16C086
:10009800E1FF15C0EAFF14C0E9FF13C0FBFF12C05F
:1000A800FAFF11C0E0FF10C0E8FF0FC0D8FF409072
:1000B8001000B4EF0BF0000E376E000E366E37BE30
:1000C80008D0375005E1040E365CD8B03AD101D0DB
:1000D80038D143EC0AF002D043EC0AF021C060F0BA
:1000E80022C061F023C062F0000E0001636F900E21
:1000F8000001646F400E0001656FDFEC09F000013C
:10010800D8B0EAD7E8EC0BF0190E00017D6F5A0E53
:1001180000017C6FB10EE82EFED77C2FFCD77D2F17
:10012800FAD700D010EC0CF0150E00017D6F4B0EC5
:1001380000017C6FBE0EE82EFED77C2FFCD77D2FEA
:10014800FAD700F004EC0CF0090E00017D6F1E0ECA
:1001580000017C6FE40EE82EFED77C2FFCD77D2FA4
:10016800FAD700F010EC0CF0150E00017D6F4B0E65
:1001780000017C6FBE0EE82EFED77C2FFCD77D2FAA
:10018800FAD700F0E8EC0BF0170E00017D6F530E64
:1001980000017C6F370EE82EFED77C2FFCD77D2F11
:1001A800FAD700D010EC0CF01E0E00017D6F6D0E1A
:1001B80000017C6F610EE82EFED77C2FFCD77D2FC7
:1001C800FAD700D043EC0AF002D043EC0AF021C081
:1001D80060F022C061F023C062F0000E0001636F7E
:1001E800900E0001646F400E0001656FDFEC09F0AE
:1001F8000001D8A0EAD704EC0CF0090E00017D6FCD
:100208001E0E00017C6FE40EE82EFED77C2FFCD773
:100218007D2FFAD700F010EC0CF0150E00017D6F61
:100228004B0E00017C6FBE0EE82EFED77C2FFCD74C
:100238007D2FFAD700F0E8EC0BF0140E00017D6F6B
:10024800480E00017C6F010EE82EFED77C2FFCD7EC
:100258007D2FFAD710EC0CF0150E00017D6F4B0EB8
:1002680000017C6FBE0EE82EFED77C2FFCD77D2FB9
:10027800FAD700F004EC0CF0090E00017D6F1E0E99
:1002880000017C6FE40EE82EFED77C2FFCD77D2F73
:10029800FAD700F010EC0CF0150E00017D6F4B0E34
:1002A80000017C6FBE0EE82EFED77C2FFCD77D2F79
:1002B800FAD700F0E8EC0BF0130E00017D6F440E46
:1002C80000017C6F440EE82EFED77C2FFCD77D2FD3
:1002D800FAD700F010EC0CF0150E00017D6F4B0EF4
:1002E80000017C6FBE0EE82EFED77C2FFCD77D2F39
:1002F800FAD700F004EC0CF0090E00017D6F1E0E19
:1003080000017C6FE40EE82EFED77C2FFCD77D2FF2
:10031800FAD700F010EC0CF0330E00017D6FBB0E25
:1003280000017C6FDF0EE82EFED77C2FFCD77D2FD7
:10033800FAD700D0364A372A37BECBD6375001E134
:10034800C2D6010EC26E000E0001A26F000EA16F90
:1003580010EC0CF012007CC080F00001816B826B05
:1003680000017B350001803701E381810001805164
:100378000001856F7FC080F00001816B826B0001F6
:100388007E350001803701E3818100018051000141
:10039800846F000185510001D8B411D00001845147
:1003A8000001855DD8B012D0000185510008000118
:1003B80084250001806F180E0001806507D07DC07C
:1003C8007AF07EC07BF07FC07CF01200000184517F
:1003D8000001D8B411D0000185510001845DD8B066
:1003E80012D0000184510008000185250001806FAA
:1003F800180E0001806507D07AC07AF07BC07BF0C8
:100408007CC07CF01200060E0001836F00017CAFF7
:1004180002D00001838F00017FAF02D00001838DDD
:1004280000017B8FFF0E00017A17FF0E00017B177A
:10043800000E00017C1700017E8FFF0E00017D1762
:10044800FF0E00017E17000E00017F170001845186
:100458000001855DD8B025D00001D8907D377E3762
:100468007F37000184070001855100018419D8B441
:1004780011D00001830783C080F0070E00018017A8
:10048800D8B408D0E9D70001D8907C337B337A33CD
:100498000001852B0001845100018519D8B42BD0A7
:1004A800F2D7000185510001845DD8B024D0000145
:1004B800D8907A377B377C37000185070001855152
:1004C80000018419D8B411D00001830783C080F0DB
:1004D800070E00018017D8B408D0E9D70001D890DA
:1004E8007F337E337D330001842B0001845100016A
:1004F8008519D8A4F3D7000183AF12D0FF0E0001ED
:100508007A1BFF0E00017B1BFF0E00017C1B010EF6
:1005180000017A27000E00017B23000E00017C23D6
:10052800000183AD12D0FF0E00017D1BFF0E0001FC
:100538007E1BFF0E00017F1B010E00017D27000EB0
:1005480000017E23000E00017F23000E0001836F4F
:1005580000017A5100017D2700017B5100017E23B3
:1005680000017C5100017F2300017FAF15D0FF0EF1
:1005780000017D1BFF0E00017E1BFF0E00017F1B8B
:10058800010E00017D27000E00017E23000E0001F0
:100598007F23010E0001836F7DC060F07EC061F093
:1005A8007FC062F085C063F083C064F0DFEC08F0C0
:1005B80060C07AF061C07BF062C07CF0120081A854
:1005C80019D1899800019F510001A011D8A403D026
:1005D80010EC0CF0120000019F050001A011D8A436
:1005E8003DD0E8EC0BF000019D0500019E11D8A458
:1005F80008D0F8EC0AF0000E00019E6F000E9D6F07
:100608001200020E00019D1900019E11D8A408D005
:1006180074EC0BF0000E00019E6F000E9D6F12002F
:10062800030E00019D1900019E11D8A408D0C6EC44
:100638000AF0000E00019E6F000E9D6F1200040E5E
:1006480000019D1900019E11D8A4120054EC0BF072
:10065800000E00019E6F000E9D6F1200020E000139
:100668009F190001A011D8A43DD0D3EC0BF00001D4
:100678009D0500019E11D8A408D0F8EC0AF0000EE0
:1006880000019E6F000E9D6F1200020E00019D1961
:1006980000019E11D8A408D074EC0BF0000E0001E4
:1006A8009E6F000E9D6F1200030E00019D19000140
:1006B8009E11D8A408D0C6EC0AF0000E00019E6F67
:1006C800000E9D6F1200040E00019D1900019E117D
:1006D800D8A4120054EC0BF0000E00019E6F000E1F
:1006E8009D6F1200030E00019F190001A011D8A4EC
:1006F8003DD0FDEC0BF000019D0500019E11D8A432
:1007080008D0F8EC0AF0000E00019E6F000E9D6FF5
:100718001200020E00019D1900019E11D8A408D0F4
:1007280074EC0BF0000E00019E6F000E9D6F12001E
:10073800030E00019D1900019E11D8A408D0C6EC33
:100748000AF0000E00019E6F000E9D6F1200040E4D
:1007580000019D1900019E11D8A4120054EC0BF061
:10076800000E00019E6F000E9D6F1200040E000126
:100778009F190001A011D8A4120004EC0CF000018C
:100788009D0500019E11D8A408D0F8EC0AF0000ECF
:1007980000019E6F000E9D6F1200020E00019D1950
:1007A80000019E11D8A408D074EC0BF0000E0001D3
:1007B8009E6F000E9D6F1200030E00019D1900012F
:1007C8009E11D8A408D0C6EC0AF0000E00019E6F56
:1007D800000E9D6F1200040E00019D1900019E116C
:1007E800D8A4120054EC0BF0000E00019E6F000E0E
:1007F8009D6F12000BEC0CF0898812000600FACFEE
:1008080001F0FBCF02F0E9CF03F0EACF04F0E1CF2B
:1008180005F0E2CF06F0D9CF07F0DACF08F0F3CF32
:1008280009F0F4CF0AF0F6CF0BF0F7CF0CF0F8CFC1
:100838000DF0F5CF0EF09EAAABD0AECF99F0000127
:100848009A6B6D0E0001991900019A11D8B407D05E
:100858004D0E0001991900019A11D8A405D0000E77
:1008680000019C6F010E25D0610E0001991900014D
:100878009A11D8B407D0410E0001991900019A11B4
:10088800D8A405D0000E00019C6F020E12D0730E82
:100898000001991900019A11D8B407D0530E00012C
:1008A800991900019A11D8A406D0000E00019C6F76
:1008B800030E9B6F6DD0300E0001991900019A113B
:1008C800D8A405D0000E0001A06F000E2FD0310E65
:1008D8000001991900019A11D8A405D0000E000151
:1008E800A06F010E23D0320E0001991900019A1150
:1008F800D8A405D0000E0001A06F020E17D0330E49
:100908000001991900019A11D8A405D0000E000120
:10091800A06F030E0BD0340E0001991900019A1133
:10092800D8A406D0000E0001A06F040E9F6F30D02F
:10093800350E0001991900019A11D8A405D0000EAE
:1009480000019E6F010E23D0360E00019919000197
:100958009A11D8A405D0000E00019E6F020E17D080
:10096800370E0001991900019A11D8A405D0000E7C
:1009780000019E6F030E0BD0380E0001991900017B
:100988009A11D8A405D0000E00019E6F040E9D6F29
:100998000EC0F5FF0DC0F8FF0CC0F7FF0BC0F6FF47
:1009A8000AC0F4FF09C0F3FF08C0DAFF07C0D9FF87
:1009B80006C0E2FF05C0E1FF04C0EAFF03C0E9FF8B
:1009C80002C0FBFF01C0FAFF409211006DC071F038
:1009D8000001726B736B00016C350001713701E324
:1009E8007281000171510001746F00017451D8A423
:1009F8000AD0000E00016B6F000E00016C6F000E34
:100A080000016D6F120070C071F00001726B736BA2
:100A180000016F350001713701E3728100017151E6
:100A28000001796F00017951D8A40AD0000E0001A5
:100A38006B6F000E00016C6F000E00016D6F1200ED
:100A4800000179517B0F000174276DC079F0000116
:100A580070510001791B800E0001791700016C8F1D
:100A680000016F8FFF0E00016E17FF0E00016F1758
:100A7800000E00017017000E0001756F000E0001D6
:100A8800766F000E0001776F070E0001786F000186
:100A98006BA10CD000016E510001752700016F5148
:100AA8000001762300017051000177230001D890DE
:100AB8006D336C336B330001D8906E376F377037F6
:100AC8000001782FE4D7090E0001786F00016BA1AF
:100AD8000CD000016E510001752700016F51000113
:100AE800762300017051000177230001D8906D33FF
:100AF8006C336B330001D89077337633753300014C
:100B0800782FE4D775C060F076C061F077C062F0E6
:100B180074C063F079C064F0DFEC08F060C06BF07B
:100B280061C06CF062C06DF01200C282C2B2FED722
:100B38000001A1050001A211D8A412001A0E00019B
:100B4800866FF80EE82EFED7862FFCD700F0C3502C
:100B5800C4CF86F00001876B86C087F00001866BE2
:100B6800000186110001996F0001875100019A6FF9
:100B780099C068F09AC069F094EC0BF068C06BF00B
:100B880069C06CF06AC06DF0280E00016E6FA00E8F
:100B980000016F6F3B0E0001706FEAEC04F06BC050
:100BA800A3F06CC0A4F06DC0A5F0A3C06EF0A4C003
:100BB8006FF0A5C070F0A3C06BF0A4C06CF0A5C026
:100BC8006DF0EAEC04F06BC088F06CC089F06DC081
:100BD8008AF01D0E00016E6F1A0E00016F6F3F0E36
:100BE8000001706FA3C06BF0A4C06CF0A5C06DF0DD
:100BF800EAEC04F06BC07DF06CC07EF06DC07FF055
:100C08006F0E00016E6F920E00016F6F3E0E0001B5
:100C1800706F88C06BF089C06CF08AC06DF0EAEC28
:100C280004F06BC07AF06CC07BF06DC07CF0AFEC68
:100C380001F07AC08BF07BC08CF07CC08DF08BC04B
:100C48007AF08CC07BF08DC07CF0E50E00017D6FE2
:100C5800100E00017E6FBE0E00017F6FAFEC01F039
:100C68007AC090F07BC091F07CC092F000D000D0A8
:100C780000D0090EC26E000E0001A26F020EA16F15
:100C88001200C282C2B2FED70001A1510001A21116
:100C9800D8A412001A0E0001866FF80EE82EFED7AF
:100CA800862FFCD700F0C350C4CF86F00001876BB5
:100CB80086C087F00001866B000186110001996FDC
:100CC8000001875100019A6F99C068F09AC069F0D5
:100CD80094EC0BF068C06BF069C06CF06AC06DF002
:100CE800280E00016E6FA00E00016F6F3B0E000111
:100CF800706FEAEC04F06BC0A3F06CC0A4F06DC098
:100D0800A5F0A3C06EF0A4C06FF0A5C070F0A3C09A
:100D18006BF0A4C06CF0A5C06DF0EAEC04F06BC0F9
:100D280088F06CC089F06DC08AF01D0E00016E6FEE
:100D38001A0E00016F6F3F0E0001706FA3C06BF0B9
:100D4800A4C06CF0A5C06DF0EAEC04F06BC07DF0B7
:100D58006CC07EF06DC07FF06F0E00016E6F920E5A
:100D680000016F6F3E0E0001706F88C06BF089C084
:100D78006CF08AC06DF0EAEC04F06BC07AF06CC0DD
:100D88007BF06DC07CF0AFEC01F07AC08BF07BC0DB
:100D98008CF07CC08DF08BC07AF08CC07BF08DC05D
:100DA8007CF0E50E00017D6F100E00017E6FBE0E17
:100DB80000017F6FAFEC01F07AC093F07BC094F034
:100DC8007CC095F000D000D000D0050EC26E000E99
:100DD8000001A26F010EA16F1200030E3E183F1012
:100DE800D8A414D0A60E3B6EBA0E3C6E430E3D6ED0
:100DF800000E386E3E0E396E430E3A6E000E3F6E90
:100E0800010E3E6E000E3F6E020E3E6E3BC06BF052
:100E18003CC06CF03DC06DF03F0E00016E6FFA0EE5
:100E280000016F6F3E0E0001706FEAEC04F06BC0BA
:100E38002DF06CC02EF06DC02FF02DC060F02EC0CC
:100E480061F02FC062F03DEC08F0000161356133BC
:100E58006033000161356133603300016051BE6E5B
:100E68002DC060F02EC061F02FC062F03DEC08F09C
:100E7800030E000160170001603BF00E00016017CF
:100E8800BD500F0B00016011BD6E38C06BF039C04A
:100E98006CF03AC06DF03F0E00016E6FFA0E000163
:100EA8006F6F3E0E0001706FEAEC04F06BC02AF021
:100EB8006CC02BF06DC02CF02AC060F02BC061F024
:100EC8002CC062F03DEC08F00001613561336033FD
:100ED800000161356133603300016051BB6E2AC087
:100EE80060F02BC061F02CC062F03DEC08F0030EFE
:100EF800000160170001603BF00E00016017BD5053
:100F08000F0B00016011BA6E2AC060F02BC061F0AF
:100F18002CC062F02DC063F02EC064F02FC065F0C5
:100F2800DFEC09F01200020E3E183F10D8A414D0CE
:100F3800000E3B6E3E0E3C6E430E3D6EA60E386EA6
:100F4800BA0E396E430E3A6E000E3F6E010E3E6EBB
:100F5800000E3F6E030E3E6E3BC06BF03CC06CF063
:100F68003DC06DF03F0E00016E6FFA0E00016F6F0D
:100F78003E0E0001706FEAEC04F06BC02DF06CC0FF
:100F88002EF06DC02FF02DC060F02EC061F02FC084
:100F980062F03DEC08F00001613561336033000117
:100FA80061356133603300016051BE6E2DC060F061
:100FB8002EC061F02FC062F03DEC08F0030E000176
:100FC80060170001603BF00E00016017BD500F0B69
:100FD80000016011BD6E38C06BF039C06CF03AC0CA
:100FE8006DF03F0E00016E6FFA0E00016F6F3E0E3E
:100FF8000001706FEAEC04F06BC02AF06CC02BF0B3
:101008006DC02CF02AC060F02BC061F02CC062F0DB
:101018003DEC08F000016135613360330001613552
:101028006133603300016051BB6E2AC060F02BC091
:1010380061F02CC062F03DEC08F0030E000160176F
:101048000001603BF00E00016017BD500F0B00015E
:101058006011BA6E2DC060F02EC061F02FC062F032
:101068002AC063F02BC064F02CC065F0DFEC09F0F7
:10107800120062C064F00001656B666B00016135A7
:101088000001643701E365810001645100016E6F5E
:1010980000016E51D8A40AD0000E0001606F000E46
:1010A800616F000E626F000E636F1200170E000171
:1010B800646F60C065F061C066F062C067F00001EF
:1010C80064290001686F05D00001D8906733663342
:1010D80065330001682FF8D7000165510001696F79
:1010E8000001618FFF0E00016017FF0E00016117FC
:1010F800000E000162170001605100016A6F0001D3
:10110800615100016B6F0001625100016C6F0001B9
:101118006D6B8E0E00016E5F00016EAF1AD000017C
:101128006E51800A8F0FD8B00AD0000E0001606F90
:10113800000E616F000E626F000E636F12000001F7
:10114800D8906D336C336B336A3300016E3FF7D739
:101158001BD0170E00016E6512D0000E0001606FE3
:10116800000E616F000E626F000E636F12000001C7
:10117800D8906A376B376C376D3700016E070001FE
:101188006E510001D8A4F3D7000169510001D8B409
:1011980009D000016D1F6C1F6B1F6A6D000E6B2359
:1011A8006C236D236AC060F06BC061F06CC062F0A4
:1011B8006DC063F01200000163510001D8B408D07B
:1011C800000160510001611100016211D8A411D021
:1011D800000E0001606F000E0001616F000E00013B
:1011E800626F12000001632B0001D89062336133F3
:1011F8006033000E000160150001656F000E0001EC
:1012080061150001666FFE0E000162150001676F2F
:10121800000165510001661100016711D8B411D0B1
:10122800E1D70001632B010E00016027000E0001C9
:101238006123000E000162230001D89062336133FC
:101248006033000E000160150001656F000E00019B
:1012580061150001666FFF0E000162150001676FDE
:10126800000165510001661100016711D8B408D06A
:10127800D8D7000163070001D8906037613762371B
:10128800000161BF04D0020E00016361F2D70001C2
:1012980063B102D00001619F0001D890633300015F
:1012A800635100016213000164510001D8B402D0F7
:1012B8000001628F60C060F061C061F062C062F0DE
:1012C80012003E043F10D8A40ED09A0E3B6EFF0EBB
:1012D8003C6E430E3D6E000E3F6E020E3E6E000EDB
:1012E8003F6E030E3E6E3BC06BF03CC06CF03DC0E1
:1012F8006DF03F0E00016E6FFA0E00016F6F3E0E2B
:101308000001706FEAEC04F06BC02DF06CC02EF099
:101318006DC02FF02DC060F02EC061F02FC062F0BC
:101328003DEC08F00001613561336033000161353F
:101338006133603300016051BE6E2DC060F02EC075
:1013480061F02FC062F03DEC08F0030E0001601759
:101358000001603BF00E00016017BD500F0B00014B
:101368006011BD6E2DC060F02EC061F02FC062F01C
:101378003DEC08F0000161356133603300016135EF
:101388006133603300016051BB6E2DC060F02EC028
:1013980061F02FC062F03DEC08F0030E0001601709
:1013A8000001603BF00E00016017BD500F0B0001FB
:1013B8006011BA6E1200000162AF1DD060C066F005
:1013C80061C067F062C068F00001661F671F681F90
:1013D800662B000E67236823000E000166250001B6
:1013E800606F000E000167210001616F800E00012F
:1013F80068210001626F000165AF1DD063C066F00F
:1014080064C067F065C068F00001661F671F681F49
:10141800662B000E67236823000E00016625000175
:10142800636F000E000167210001646F800E0001E8
:1014380068210001656F000E0001601B000E0001AD
:10144800611B800E0001621B000E0001631B000E71
:101458000001641B800E0001651B0001635100013F
:10146800605D00016451000161590001655100018E
:101478006259D8B002D0D8901200D8801200C28227
:10148800C2B2FED7020E0001A1190001A211D8A410
:1014980012001A0E00017A6FF80EE82EFED77A2F86
:1014A800FCD700F0C350C4CF7AF000017B6B7AC040
:1014B8007BF000017A6B00017A110001996F00013D
:1014C8007B5100019A6F99C068F09AC069F094EC5A
:1014D8000BF068C06BF069C06CF06AC06DF0280E44
:1014E80000016E6FA00E00016F6F3B0E0001706F60
:1014F800EAEC04F06BC021F06CC022F06DC023F060
:1015080000D000D000D01200720ED36E010EC26E51
:101518000C0EC16E910EC06EF00E936EF00E8A6EB8
:101528000F0E926E0F0E896E000E966E000E8D6E67
:101538007C0ECB6E030ECA6E000E946E000E8B6E80
:101548007D0EBE6E0C0EBD6E7D0EBB6E0C0EBA6EA1
:10155800948E949C0C0EAF6E900EAB6E200EAC6EFB
:10156800F28EF28C9D8A9E9A9F8AF086F090F18A7C
:10157800F09CF088F092F188F09EC282000ECC6E4A
:10158800CA84120038C07AF039C07BF03AC07CF0C7
:101598009A0E00017D6FCC0E00017E6F420E000195
:1015A8007F6FAFEC01F07AC038F07BC039F07CC0B7
:1015B8003AF0C00E0001606F7F0E0001616F440EAB
:1015C8000001626F38C063F039C064F03AC065F05A
:1015D800DFEC09F00001D8B01200C00E386E7F0EA3
:1015E800396E440E3A6E12003BC07AF03CC07BF074
:1015F8003DC07CF09A0E00017D6FCC0E00017E6F1D
:10160800420E00017F6FAFEC01F07AC03BF07BC067
:101618003CF07CC03DF0C00E0001606F7F0E000101
:10162800616F440E0001626F3BC063F03CC064F020
:101638003DC065F0DFEC09F00001D8B01200C00E23
:101648003B6E7F0E3C6E440E3D6E120088EC0AF035
:1016580010D0899A8D80E3EC02F01DD0898A8D9094
:101668005FEC00F018D0000E00019C6F000E9B6F1D
:1016780012D09BC08EF09CC08FF000018F51000AE1
:10168800D8A4F1D700018E51010AD8B4E2D7030AD1
:10169800D8B4E4D7E8D745EC06F099EC05F0E9D7DB
:1016A80038C07AF039C07BF03AC07CF09A0E00015D
:1016B8007D6FCC0E00017E6FC20E00017F6FAFEC14
:1016C80001F07AC038F07BC039F07CC03AF03AAE0D
:1016D8001200000E386E000E396E000E3A6E1200BF
:1016E8003BC07AF03CC07BF03DC07CF09A0E000114
:1016F8007D6FCC0E00017E6FC20E00017F6FAFECD4
:1017080001F07AC03BF07BC03CF07CC03DF03DAEC0
:101718001200000E3B6E000E3C6E000E3D6E120075
:10172800000E206E000169AF07D00001686D691FC7
:10173800D8B0692B010E206E68C060F069C061F0F6
:101748000001626B8E0E0001636F20C064F0DFEC55
:1017580008F060C068F061C069F062C06AF0120009
:10176800340EF66E180EF76E000EF86E0900F5CFFF
:101778003EF00900F5CF3FF000EE90F0160EEE6A4D
:10178800E806FDE100EE21F01D0EEE6AE806FDE137
:1017980040904092000EF86E00012AEF0BF0020E06
:1017A80000017B6F040E00017A6FBA0EE82EFED797
:1017B8007A2FFCD77B2FFAD700F065EC09F08A90D6
:1017C8008A828A948A861200020E00017B6F040EB8
:1017D80000017A6FBA0EE82EFED77A2FFCD77B2F3E
:1017E800FAD700F065EC09F08A808A928A848A9692
:1017F8001200F1EC06F08A808A928A848A96120096
:1018080097EC07F08A808A928A848A9612008A90D6
:101818008A928A948A9612008A908A928A948A96E0
:0E18280012008A908A928A948A961200010019
:020000040020DA
:08000000FFFFFFFFFFFFFFFF00
:020000040030CA
:0E000000000B1F1EFF8381FF0FC00FE00F409B
:00000001FF
