:0400000007EF00F016
:100008004F821DED03F049EF09F0000E436E000E1C
:10001800426E43BE08D0435005E1040E425CD8B09E
:100028000FD101D00DD190EC08F002D090EC08F07F
:1000380031C010F032C011F033C012F0000E136E50
:10004800900E146E400E156E0FEC08F0D8B0EED777
:10005800D1EC09F0190E2E6E5A0E2D6EB20EE82E46
:10006800FED72D2EFCD72E2EFAD7F7EC09F0150E59
:100078002E6E4B0E2D6EBE0EE82EFED72D2EFCD703
:100088002E2EFAD700D0EBEC09F0090E2E6E1E0EBC
:100098002D6EE40EE82EFED72D2EFCD72E2EFAD785
:1000A80000D0F7EC09F0150E2E6E4B0E2D6EBE0E1D
:1000B800E82EFED72D2EFCD72E2EFAD700D0D1EC65
:1000C80009F0170E2E6E530E2D6E380EE82EFED741
:1000D8002D2EFCD72E2EFAD7F7EC09F01E0E2E6E19
:1000E8006D0E2D6E620EE82EFED72D2EFCD72E2E0D
:1000F800FAD790EC08F002D090EC08F031C010F07C
:1001080032C011F033C012F0000E136E900E146E50
:10011800400E156E0FEC08F0D8A0EED7EBEC09F006
:10012800090E2E6E1E0E2D6EE40EE82EFED72D2E15
:10013800FCD72E2EFAD700D0F7EC09F0150E2E6E4C
:100148004B0E2D6EBE0EE82EFED72D2EFCD72E2E72
:10015800FAD700D0D1EC09F0140E2E6E480E2D6E91
:10016800010EE82EFED72D2EFCD72E2EFAD700F042
:10017800F7EC09F0150E2E6E4B0E2D6EBE0EE82E06
:10018800FED72D2EFCD72E2EFAD700D0EBEC09F097
:10019800090E2E6E1E0E2D6EE40EE82EFED72D2EA5
:1001A800FCD72E2EFAD700D0F7EC09F0150E2E6EDC
:1001B8004B0E2D6EBE0EE82EFED72D2EFCD72E2E02
:1001C800FAD700D0D1EC09F0130E2E6E440E2D6E26
:1001D800440EE82EFED72D2EFCD72E2EFAD700D0AF
:1001E800F7EC09F0150E2E6E4B0E2D6EBE0EE82E96
:1001F800FED72D2EFCD72E2EFAD700D0EBEC09F027
:10020800090E2E6E1E0E2D6EE40EE82EFED72D2E34
:10021800FCD72E2EFAD700D0F7EC09F0330E2E6E4D
:10022800BB0E2D6EE00EE82EFED72D2EFCD72E2EFF
:10023800FAD7424A432A43BEF6D6435001E1EDD6E7
:10024800010EC26E000E416E000E406EF7EC09F012
:1002580012002DC077F00001786B796B2C34000107
:10026800773701E378810001775100017C6F30C056
:1002780077F00001786B796B2F340001773701E351
:1002880078810001775100017B6F00017C510001EA
:10029800D8B411D000017B5100017C5DD8B012D0D8
:1002A80000017C51000800017B250001776F180EC2
:1002B8000001776507D02EC02BF02FC02CF030C07E
:1002C8002DF0120000017B510001D8B411D00001BB
:1002D8007C5100017B5DD8B012D000017B51000831
:1002E80000017C250001776F180E0001776507D0A3
:1002F8002BC02BF02CC02CF02DC02DF01200060EB8
:1003080000017A6F2DAE02D000017A8F30AE02D094
:1003180000017A8D2C8EFF0E2B16FF0E2C16000E68
:100328002D162F8EFF0E2E16FF0E2F16000E3016CE
:1003380000017B5100017C5DD8B023D0D8902E36C7
:100348002F36303600017B0700017C5100017B19F4
:10035800D8B410D000017A077AC077F0070E0001F0
:100368007717D8B407D0EAD7D8902D322C322B3251
:1003780000017C2B00017B5100017C19D8B429D0E5
:10038800F3D700017C5100017B5DD8B022D0D89012
:100398002B362C362D3600017C0700017C510001DC
:1003A8007B19D8B410D000017A077AC077F0070E0D
:1003B80000017717D8B407D0EAD7D89030322F3257
:1003C8002E3200017B2B00017B5100017C19D8A43F
:1003D800F4D700017AAF0CD0FF0E2B1AFF0E2C1A9F
:1003E800FF0E2D1A010E2B26000E2C22000E2D2298
:1003F80000017AAD0CD0FF0E2E1AFF0E2F1AFF0E39
:10040800301A010E2E26000E2F22000E3022000E6A
:1004180000017A6F2B502E262C502F222D5030227F
:1004280030AE0FD0FF0E2E1AFF0E2F1AFF0E301A05
:10043800010E2E26000E2F22000E3022010E000182
:100448007A6F2EC010F02FC011F030C012F07CC0AF
:1004580013F07AC014F0B8EC07F010C02BF011C0FC
:100468002CF012C02DF0120081A8DFD089983E50E0
:100478003F10D8A403D0F7EC09F012003E043F1057
:10048800D8A431D0D1EC09F03C043D10D8A407D051
:10049800F4EC08F0000E3D6E000E3C6E1200020EE9
:1004A8003C183D10D8A407D085EC09F0000E3D6E2D
:1004B800000E3C6E1200030E3C183D10D8A407D065
:1004C800C9EC08F0000E3D6E000E3C6E1200040EE2
:1004D8003C183D10D8A4120068EC09F0000E3D6EDF
:1004E800000E3C6E1200020E3E183F10D8A431D008
:1004F800BEEC09F03C043D10D8A407D0F4EC08F099
:10050800000E3D6E000E3C6E1200020E3C183D10AF
:10051800D8A407D085EC09F0000E3D6E000E3C6EA5
:100528001200030E3C183D10D8A407D0C9EC08F0FF
:10053800000E3D6E000E3C6E1200040E3C183D107D
:10054800D8A4120068EC09F0000E3D6E000E3C6E57
:100558001200030E3E183F10D8A431D0E4EC09F085
:100568003C043D10D8A407D0F4EC08F0000E3D6E12
:10057800000E3C6E1200020E3C183D10D8A407D0A5
:1005880085EC09F0000E3D6E000E3C6E1200030E65
:100598003C183D10D8A407D0C9EC08F0000E3D6EF9
:1005A800000E3C6E1200040E3C183D10D8A4120038
:1005B80068EC09F0000E3D6E000E3C6E1200040E51
:1005C8003E183F10D8A41200EBEC09F03C043D1093
:1005D800D8A407D0F4EC08F0000E3D6E000E3C6E77
:1005E8001200020E3C183D10D8A407D085EC09F083
:1005F800000E3D6E000E3C6E1200030E3C183D10BE
:10060800D8A407D0C9EC08F0000E3D6E000E3C6E71
:100618001200040E3C183D10D8A4120068EC09F032
:10062800000E3D6E000E3C6E1200F2EC09F0898857
:1006380012000600FACF02F0FBCF03F0E9CF04F076
:10064800EACF05F0E1CF06F0E2CF07F0D9CF08F006
:10065800DACF09F0F3CF0AF0F4CF0BF0F6CF0CF0B5
:10066800F7CF0DF0F8CF0EF0F5CF0FF09EAA83D09C
:10067800AECF3AF03B6A6D0E3A183B10D8B405D0AD
:100688004D0E3A183B10D8A405D0000E0001766F25
:10069800010E1DD0610E3A183B10D8B405D0410E9A
:1006A8003A183B10D8A405D0000E0001766F020E50
:1006B8000ED0730E3A183B10D8B405D0530E3A1822
:1006C8003B10D8A406D0000E0001766F030E756F9C
:1006D80052D0300E3A183B10D8A404D0000E3F6E0A
:1006E800000E23D0310E3A183B10D8A404D0000EC7
:1006F8003F6E010E1AD0320E3A183B10D8A404D01F
:10070800000E3F6E020E11D0330E3A183B10D8A4DB
:1007180004D0000E3F6E030E08D0340E3A183B107A
:10072800D8A405D0000E3F6E040E3E6E24D0350EC0
:100738003A183B10D8A404D0000E3D6E010E1AD012
:10074800360E3A183B10D8A404D0000E3D6E020EA7
:1007580011D0370E3A183B10D8A404D0000E3D6EC5
:10076800030E08D0380E3A183B10D8A404D0000E57
:100778003D6E040E3C6EF2A022D0F29081CF01F0C3
:10078800F00E0116D8B40CD081A819D01A0E016E3B
:10079800F80EE82EFED7012EFCD700D089980FD08E
:1007A80081B80DD01A0E016EF80EE82EFED7012E74
:1007B800FCD700D08988FCEC09F081A8FED70FC0CF
:1007C800F5FF0EC0F8FF0DC0F7FF0CC0F6FF0BC019
:1007D800F4FF0AC0F3FF09C0DAFF08C0D9FF07C059
:1007E800E2FF06C0E1FF05C0EAFF04C0E9FF03C05D
:1007F800FBFF02C0FAFF4F921100C282C2B2FED7BD
:1008080040044110D8A412001A0E00017D6FF80EA2
:10081800E82EFED77D2FFCD700F0C350C4CF7DF063
:1008280000017E6B7DC07EF000017D6B00017D11B3
:100838003A6E00017E513B6E3AC018F03BC019F089
:10084800A2EC09F018C01CF019C01DF01AC01EF067
:10085800280E1F6EA00E206E3B0E216ED5EC06F002
:100868001CC044F01DC045F01EC046F044C01FF037
:1008780045C020F046C021F044C01CF045C01DF022
:1008880046C01EF0D5EC06F01CC07FF01DC080F0FD
:100898001EC081F01D0E1F6E1A0E206E3F0E216EB7
:1008A80044C01CF045C01DF046C01EF0D5EC06F053
:1008B8001CC02EF01DC02FF01EC030F06F0E1F6E32
:1008C800920E206E3E0E216E7FC01CF080C01DF07F
:1008D80081C01EF0D5EC06F01CC02BF01DC02CF01A
:1008E8001EC02DF02DEC01F02BC082F02CC083F03F
:1008F8002DC084F082C02BF083C02CF084C02DF072
:10090800E50E2E6E100E2F6EBE0E306E2DEC01F021
:100918002BC060F02CC061F02DC062F000D000D078
:1009280000D0090EC26E000E416E020E406E12001B
:10093800C282C2B2FED740504110D8A412001A0E8B
:1009480000017D6FF80EE82EFED77D2FFCD700F052
:10095800C350C4CF7DF000017E6B7DC07EF00001E6
:100968007D6B00017D113A6E00017E513B6E3AC0ED
:1009780018F03BC019F0A2EC09F018C01CF019C01F
:100988001DF01AC01EF0280E1F6EA00E206E3B0E22
:10099800216ED5EC06F01CC044F01DC045F01EC009
:1009A80046F044C01FF045C020F046C021F044C0C6
:1009B8001CF045C01DF046C01EF0D5EC06F01CC06A
:1009C8007FF01DC080F01EC081F01D0E1F6E1A0E34
:1009D800206E3F0E216E44C01CF045C01DF046C07D
:1009E8001EF0D5EC06F01CC02EF01DC02FF01EC066
:1009F80030F06F0E1F6E920E206E3E0E216E7FC07D
:100A08001CF080C01DF081C01EF0D5EC06F01CC0A3
:100A18002BF01DC02CF01EC02DF02DEC01F02BC0CA
:100A280082F02CC083F02DC084F082C02BF083C0EC
:100A38002CF084C02DF0E50E2E6E100E2F6EBE0E1B
:100A4800306E2DEC01F02BC063F02CC064F02DC08B
:100A580065F000D000D000D0050EC26E000E416EC9
:100A6800010E406E1200030E4D184E10D8A414D07B
:100A7800A60E4A6EBA0E4B6E430E4C6E000E476EB3
:100A88003E0E486E430E496E000E4E6E010E4D6EC0
:100A9800000E4E6E020E4D6E4AC01CF04BC01DF08B
:100AA8004CC01EF03F0E1F6EFA0E206E3E0E216ED9
:100AB800D5EC06F01CC037F01DC038F01EC039F068
:100AC80037C010F038C011F039C012F05BEC06F0F6
:100AD8001134113210321134113210321050BE6EEE
:100AE80037C010F038C011F039C012F05BEC06F0D6
:100AF800030E1016103AF00E1016BD500F0B101002
:100B0800BD6E47C01CF048C01DF049C01EF03F0E26
:100B18001F6EFA0E206E3E0E216ED5EC06F01CC03C
:100B280034F01DC035F01EC036F034C010F035C0AA
:100B380011F036C012F05BEC06F0113411321032AD
:100B48001134113210321050BB6E34C010F035C061
:100B580011F036C012F05BEC06F0030E1016103AD6
:100B6800F00E1016BD500F0B1010BA6E34C010F0F6
:100B780035C011F036C012F037C013F038C014F089
:100B880039C015F00FEC08F01200020E4D184E1087
:100B9800D8A414D0000E4A6E3E0E4B6E430E4C6E17
:100BA800A60E476EBA0E486E430E496E000E4E6E84
:100BB800010E4D6E000E4E6E030E4D6E4AC01CF0B7
:100BC8004BC01DF04CC01EF03F0E1F6EFA0E206E7B
:100BD8003E0E216ED5EC06F01CC037F01DC038F073
:100BE8001EC039F037C010F038C011F039C012F00B
:100BF8005BEC06F01134113210321134113210321C
:100C08001050BE6E37C010F038C011F039C012F065
:100C18005BEC06F0030E1016103AF00E1016BD50DD
:100C28000F0B1010BD6E47C01CF048C01DF049C026
:100C38001EF03F0E1F6EFA0E206E3E0E216ED5EC92
:100C480006F01CC034F01DC035F01EC036F034C0AC
:100C580010F035C011F036C012F05BEC06F011341C
:100C6800113210321134113210321050BB6E34C0B0
:100C780010F035C011F036C012F05BEC06F0030E30
:100C88001016103AF00E1016BD500F0B1010BA6E59
:100C980037C010F038C011F039C012F034C013F06A
:100CA80035C014F036C015F00FEC08F0120012C071
:100CB80014F0156A166A1134143601E315801450BD
:100CC8001E6E1E50D8A409D0000E106E000E116EB4
:100CD800000E126E000E136E1200170E146E10C066
:100CE80015F011C016F012C017F01428186E04D0B1
:100CF800D890173216321532182EFAD71550196EA9
:100D0800118EFF0E1016FF0E1116000E121610503F
:100D18001A6E11501B6E12501C6E1D6A8E0E1E5ECE
:100D28001EAE16D01E50800A8F0FD8B009D0000E04
:100D3800106E000E116E000E126E000E136E120071
:100D4800D8901D321C321B321A321E3EF9D715D0EC
:100D5800170E1E640FD0000E106E000E116E000EDE
:100D6800126E000E136E1200D8901A361B361C36FF
:100D78001D361E061E50D8A4F7D71950D8B408D06F
:100D88001D1E1C1E1B1E1A6C000E1B221C221D225F
:100D98001AC010F01BC011F01CC012F01DC013F0D7
:100DA80012001EC022F0236A246A1D34223601E391
:100DB80023802250256E2550D8A407D0000E1C6E23
:100DC800000E1D6E000E1E6E120021C022F0236A56
:100DD800246A2034223601E3238022502A6E2A50C6
:100DE800D8A407D0000E1C6E000E1D6E000E1E6EDD
:100DF80012002A507B0F25261EC02AF021502A1ADD
:100E0800800E2A161D8E208EFF0E1F16FF0E20162E
:100E1800000E2116000E266E000E276E000E286E9C
:100E2800070E296E1CA006D01F5026262050272208
:100E380021502822D8901E321D321C32D8901F36DD
:100E480020362136292EEED7090E296E1CA006D091
:100E58001F5026262050272221502822D8901E32A3
:100E68001D321C32D890283227322632292EEED74E
:100E780026C010F027C011F028C012F025C013F0CA
:100E88002AC014F0B8EC07F010C01CF011C01DF017
:100E980012C01EF012004D044E10D8A40ED09A0EA7
:100EA8004A6EFF0E4B6E430E4C6E000E4E6E020ED7
:100EB8004D6E000E4E6E030E4D6E4AC01CF04BC0B8
:100EC8001DF04CC01EF03F0E1F6EFA0E206E3E0E37
:100ED800216ED5EC06F01CC037F01DC038F01EC0DE
:100EE80039F037C010F038C011F039C012F05BEC9F
:100EF80006F0113411321032113411321032105000
:100F0800BE6E37C010F038C011F039C012F05BEC7B
:100F180006F0030E1016103AF00E1016BD500F0B07
:100F28001010BD6E37C010F038C011F039C012F083
:100F38005BEC06F0113411321032113411321032D8
:100F48001050BB6E37C010F038C011F039C012F025
:100F58005BEC06F0030E1016103AF00E1016BD509A
:100F68000F0B1010BA6E12001350D8B405D01050E1
:100F780011101210D8A40CD0000E106E000E116EB5
:100F8800000E126E1200132AD8901232113210324B
:100F9800000E1014156E000E1114166EFE0E1214AB
:100FA800176E155016101710D8B40CD0ECD7132A9A
:100FB800010E1026000E1122000E1222D8901232B5
:100FC80011321032000E1014156E000E1114166E28
:100FD800FF0E1214176E155016101710D8B406D03D
:100FE800E6D71306D89010361136123611BE03D044
:100FF800020E1360F6D713A0119ED8901332135027
:1010080012121450D8A4128E10C010F011C011F092
:1010180012C012F0120012AE16D010C016F011C095
:1010280017F012C018F0161E171E181E162A000EEA
:1010380017221822000E1624106E000E1720116EAB
:10104800800E1820126E15AE16D013C016F014C0FC
:1010580017F015C018F0161E171E181E162A000EB7
:1010680017221822000E1624136E000E1720146E75
:10107800800E1820156E000E101A000E111A800E20
:10108800121A000E131A000E141A800E151A135095
:10109800105C1450115815501258D8B002D0D8907E
:1010A8001200D8801200720ED36E010EC26E0C0EA2
:1010B800C16E910EC06EF00E936EF00E8A6E0F0E1A
:1010C800926E0F0E896E000E966E000E8D6E7C0E5F
:1010D800CB6E030ECA6E000E946E000E8B6E7D0EE4
:1010E800BE6E0C0EBD6E7D0EBB6E0C0EBA6E948E6F
:1010F800949C0C0EAF6E900EAB6E200EAC6EF28E02
:10110800F28C9D8A9E9A9F8AF286F290F190C28212
:10111800000ECC6ECA841200C282C2B2FED7020E82
:1011280040184110D8A412001A0E2B6EF80EE82EA3
:10113800FED72B2EFCD700D0C350C4CF2BF02C6A7F
:101148002BC02CF02B6A2B103A6E2C503B6E3AC0F9
:1011580018F03BC019F0A2EC09F018C01CF019C037
:101168001DF01AC01EF0280E1F6EA00E206E3B0E3A
:10117800216ED5EC06F01CC031F01DC032F01EC047
:1011880033F000D000D000D0120047C02BF048C088
:101198002CF049C02DF09A0E2E6ECC0E2F6E420EFA
:1011A800306E2DEC01F02BC047F02CC048F02DC05C
:1011B80049F0C00E106E7F0E116E440E126E47C0BD
:1011C80013F048C014F049C015F00FEC08F0D8B07F
:1011D8001200C00E476E7F0E486E440E496E120014
:1011E8004AC02BF04BC02CF04CC02DF09A0E2E6E3E
:1011F800CC0E2F6E420E306E2DEC01F02BC04AF053
:101208002CC04BF02DC04CF0C00E106E7F0E116E2E
:10121800440E126E4AC013F04BC014F04CC015F0C7
:101228000FEC08F0D8B01200C00E4A6E7F0E4B6E5D
:10123800440E4C6E120057EC08F010D0899A8D803D
:1012480038EC02F01DD0898A8D9009EC00F018D096
:10125800000E0001766F000E756F12D075C085F014
:1012680076C086F000018651000AD8A4F1D70001A3
:101278008551010AD8B4E2D7030AD8B4E4D7E8D72D
:101288009CEC04F001EC04F0E9D7020EF66E140EA3
:10129800F76E000EF86E0900F5CF4DF00900F5CF96
:1012A8004EF000EE60F0170EEE6AE806FDE100EE83
:1012B80031F01C0EEE6AE806FDE14F904F92000EE9
:1012C800F86E00011FEF09F047C02BF048C02CF062
:1012D80049C02DF09A0E2E6ECC0E2F6EC20E306EB7
:1012E8002DEC01F02BC047F02CC048F02DC049F080
:1012F80049AE1200000E476E000E486E000E496E91
:1013080012004AC02BF04BC02CF04CC02DF09A0EA6
:101318002E6ECC0E2F6EC20E306E2DEC01F02BC04F
:101328004AF02CC04BF02DC04CF04CAE1200000E11
:101338004A6E000E4B6E000E4C6E1200000E1B6EB5
:1013480019AE06D0186C191ED8B0192A010E1B6EDA
:1013580018C010F019C011F0126A8E0E136E1BC05F
:1013680014F0B8EC07F010C018F011C019F012C052
:101378001AF01200020E2C6E040E2B6EBA0EE82E16
:10138800FED72B2EFCD72C2EFAD700D04FEC07F027
:101398008A908A828A948A861200020E2C6E040E23
:1013A8002B6EBA0EE82EFED72B2EFCD72C2EFAD792
:1013B80000D04FEC07F08A808A928A848A961200BD
:1013C80037EC05F08A808A928A848A961200C9ECE2
:1013D80005F08A808A928A848A9612008A908A9274
:1013E8008A948A9612008A908A928A948A9612001F
:0C13F8008A908A928A948A961200010062
:020000040020DA
:08000000FFFFFFFFFFFFFFFF00
:020000040030CA
:0E000000000B1F1EFF8381FF0FC00FE00F409B
:00000001FF
